:100000000C945F000C9492080C94BF080C94870029
:100010000C9487000C9487000C9487000C94870044
:100020000C9487000C9487000C9487000C94870034
:100030000C9487000C9487000C9487000C94870024
:100040000C940D090C9487000C94290B0C94650BEF
:100050000C9487000C9487000C9487000C94870004
:100060000C94FD0F0C9487000000000700020100B3
:100070000003040600000000000000000102040864
:100080001020408001020408102001020408102002
:10009000040404040404040402020202020203032E
:1000A0000303030300000000250028002B000000CC
:1000B0000000240027002A006A08200C1A0F1124CF
:1000C0001FBECFEFD8E0DEBFCDBF12E0A0E0B1E0B1
:1000D000EAEEF6E202C005900D92A632B107D9F71A
:1000E00016E0A6E2B2E001C01D92A937B107E1F720
:1000F00010E0CEEBD0E004C02297FE010E946F1307
:10010000C83BD107C9F70E94700C0C942D110C94B8
:100110000000DC01ED91FC910190F081E02D09944B
:10012000089589EB95E00E94DE0E08950F931F93CA
:10013000CB01A0E0B0E0BA2FA92F982F8827842BFD
:10014000E7E1F0E040E050E868E970E08C019D01F3
:100150000E2E04C036952795179507950A94D2F769
:1001600000FF04C084279527A627B72776956795B3
:10017000579547953197E730F10541F71F910F915A
:100180000895EF92FF920F931F93CF93DF937C011B
:1001900060E470E089EB95E00E94020F65EF70E08B
:1001A00089EB95E00E94890089EB95E00E94170F8A
:1001B00067E370E080E090E00E94930943E050E044
:1001C00060E470E089EB95E00E94F50E05E610E032
:1001D00009C061E070E080E090E00E949309015066
:1001E0001109C1F189EB95E00E94420E03978CF34F
:1001F00089EB95E00E944B0E082F89EB95E00E9459
:100200004B0E182F89EB95E00E944B0ED02F90E0FB
:10021000C92FC12B482FBE01C7010E949600811132
:100220001CC0BE016C7F80E090E00E94321220E092
:1002300030E040E857E30E94E81220E030E04AEF67
:1002400052E40E94E81220E030E040EC50E40E94CA
:10025000301107C060E070E802C060E070EC89E730
:1002600094E4DF91CF911F910F91FF90EF9008954B
:10027000089589EB95E00E94DE0E0895CF93C62F76
:1002800060E670E089EB95E00E94020F6C2F89EB2D
:1002900095E00E949E0E60E089EB95E00E94040FBD
:1002A00041E050E060E670E089EB95E00E94F50ED9
:1002B00089EB95E00E944B0ECF9108951F93CF9349
:1002C000DF931F92CDB7DEB7162F60E670E089EBA3
:1002D00095E049830E94020F612F89EB95E00E940F
:1002E0009E0E4981642F89EB95E00E949E0E61E08D
:1002F00089EB95E00F90DF91CF911F910C94040F43
:10030000CF93DF93EC0166E20E943E01482F4D7FC0
:1003100066E2CE010E945E0166E2CE010E943E01CD
:10032000482F426066E2CE01DF91CF910C945E01CE
:10033000CF92DF92EF92FF92CF93DF936C0160E058
:100340000E943E01C9E5D2E00DC0219729F460E08A
:1003500070EC89E794EC70C061E070E080E090E0C0
:100360000E94930960E0C6010E943E0181FFEDCF2B
:1003700060E670E089EB95E00E94020F64E070E0B7
:1003800089EB95E00E94890060E089EB95E00E948E
:10039000040F42E050E060E670E089EB95E00E94D7
:1003A000F50E8230A1F689EB95E00E944B0EC82F26
:1003B00089EB95E00E944B0ED82FC6010E94800168
:1003C000C7FD03C06C2FC0E00CC0FC2EE12CED0E6D
:1003D000F11C222733272E193F09632FD22FD07FFC
:1003E000C1E070E080E090E00E9434126B017C017B
:1003F0006D2F70E084E0759567958A95E1F7882701
:1004000077FD8095982F0E94341220E030E040E87C
:100410005DE30E94E8129B01AC01C701B6010E9496
:100420003111CC2349F0262F372F482F592F60E068
:1004300070E0CB010E943011DF91CF91FF90EF90DF
:10044000DF90CF9008950E94980120E030E040E1D5
:1004500051E40E94E81220E030E040EA50E40E94BB
:10046000991120E030E040E052E40E9431110895FB
:10047000CF92DF92EF92FF921F93CF93DF937C0195
:1004800060E00E943E0160E0C7010E943E0160E61C
:1004900070E089EB95E00E94020F61E070E089EB6B
:1004A00095E00E94890060E089EB95E00E94040FCE
:1004B00043E050E060E670E089EB95E00E94F50EC5
:1004C000833009F041C089EB95E00E944B0ED82E95
:1004D00089EB95E00E944B0E182F89EB95E00E9466
:1004E0004B0EEC01C7010E948001812F90E0A0E03B
:1004F000B0E06627782F892F9A2F8D296C2B36E054
:1005000095958795779567953A95D1F70E9434121E
:100510006B017C01BE016073772744E07595679598
:100520004A95E1F770E080E090E00E94321220E00E
:1005300030E040E85EE30E94E8129B01AC01C70195
:10054000B6010E94311104C060E070EC89E794ECC0
:10055000DF91CF911F91FF90EF90DF90CF900895A2
:1005600047E063E10C945E011F93CF93DF93EC01AE
:10057000162F683008F017E066E2CE010E943E01B7
:10058000482F477C110F110F110F412B66E2CE014E
:10059000DF91CF911F910C945E01CF93DF93EC011B
:1005A00066E20E943E01482F4F7766E2CE01DF915E
:1005B000CF910C945E010F931F930E9457090091F5
:1005C000F3041091F4042091F5043091F604601BBB
:1005D000710B820B930B6B3071058105910588F0CF
:1005E0000E945709AB01BC014093F3045093F404FB
:1005F0006093F5047093F6048091F2048F5F80930A
:10060000F2041F910F910895CF93DF930E94570931
:1006100060932E0270932F028093300290933102E8
:1006200080912E0290912F02A0913002B091310260
:1006300040912A0250912B0260912C0270912D0260
:10064000841B950BA60BB70B809326029093270271
:10065000A0932802B093290280912602909127024C
:10066000A0912802B09129020B97A105B10508F4C9
:1006700040C06091360270913702809138029091AB
:10068000390228E539E344E35CE30E943111AB0110
:10069000BC01409336025093370260933802709346
:1006A0003902C091FC0484E0C89FE0011124C25AC1
:1006B000DD4F688179818A819B8128E539E344E3B4
:1006C0005CE30E943111AB01BC01488359836A830A
:1006D0007B8380912E0290912F02A0913002B091E5
:1006E000310280932A0290932B02A0932C02B093A4
:1006F0002D02DF91CF910895CF92DF92EF92FF927A
:100700000F931F93CF93DF9381E10E94EC08BC010C
:10071000882777FD8095982F0E9434126B017C0109
:100720008FE00E94EC08BC01882777FD8095982F08
:100730000E9434128B01D82FC92F2C2D3D2D4E2D08
:100740005F2D63E373E383E590E40E949911FE015A
:10075000202F312F4F2F5E2F0E94E812DF91CF9173
:100760001F910F91FF90EF90DF90CF900895CF925F
:10077000DF92EF92FF920F931F93CF93DF9381E16C
:100780000E94EC08BC01882777FD8095982F0E9475
:1007900034126B017C0180E10E94EC08BC018827C7
:1007A00077FD8095982F0E9434128B01D82FC92F86
:1007B0002C2D3D2D4E2D5F2D63E373E383E590E4F7
:1007C0000E949911FE01202F312F4F2F5E2F0E9482
:1007D000E8122DEC3CEC4CE950E40E94E812DF9169
:1007E000CF911F910F91FF90EF90DF90CF900895E0
:1007F000AF92BF92CF92DF92EF92FF920F931F932F
:10080000CF93DF930E945709C090F704D090F8046B
:10081000E090F904F090FA046C197D098E099F09A3
:100820000E9432125B018C016091F20470E080E062
:1008300090E00E9432126B017C0120E030E04AE738
:1008400054E46A2D7B2D802F912F0E9499119B01DA
:10085000AC01C701B6010E9499117B01D82FC92FA5
:100860001092F2040E9457096093F7047093F80401
:100870008093F9049093FA042BED39EF4EEB5FE38C
:10088000FE016E2D7F2D8F2F9E2F0E94E812DF918B
:10089000CF911F910F91FF90EF90DF90CF90BF907D
:1008A000AF9008958EE00E94EC089C012C3781E007
:1008B0003807F0F1293881E03807E8F12E3981E076
:1008C0003807E0F1283C81E03807D8F12C3F81E07F
:1008D0003807D0F1273282E03807C8F1273682E0A6
:1008E0003807C0F1283A82E03807B8F12A3E82E0A2
:1008F0003807B0F1213283E03807A8F1213483E0D2
:100900003807A0F12E3683E0380798F1213983E0CB
:10091000380790F12C3A83E0380788F1273C83E0D0
:10092000380780F12E3D334080F52EE031E02FC0B6
:1009300021E730E02CC024E430E029C02AE530E093
:1009400026C02EE930E023C027E830E020C02BECA1
:1009500030E01DC024EB30E01AC027E130E017C0C2
:100960002DE230E014C028EF30E011C021EE30E07D
:100970000EC022E531E00BC020E030E008C025E2E7
:1009800031E005C02BE331E002C02FEF3FEFC9019A
:1009900008956F927F928F929F92AF92BF92CF9263
:1009A000DF92EF92FF920F931F93CF93DF930E94FA
:1009B000520490935D0280935C020E94F80360935E
:1009C00058027093590280935A0290935B021092DE
:1009D0005402109255021092560210925702109231
:1009E000530210925202CAE7D4E0E12CF12C00E04D
:1009F00010E0699170E080E090E00E9434129B0169
:100A0000AC016E2D7F2D802F912F0E9431117B0123
:100A10008C0184E0C23FD80761F720E030E040EF6E
:100A200052E46E2D7F2D802F912F0E94991160939B
:100A30004E0270934F028093500290935102CAE885
:100A4000D3E0E12CF12C00E010E069917991882746
:100A500077FD8095982F0E9434129B01AC016E2D7A
:100A60007F2D802F912F0E9431117B018C01E4E0BA
:100A7000CA37DE0751F720E030E040EF52E47F2D27
:100A8000912F0E9499110E94011270934D02609360
:100A90004C02109248021092490210924A0210929F
:100AA0004B02A12CB0904902C0904A02D0904B0258
:100AB00002E613E03EE4E32E33E0F32EC0E0D0E0A4
:100AC000F80160807180828093800C5F1F4F2A2D17
:100AD0003B2D4C2D5D2D662D772D882D992D0E9457
:100AE000E41218162CF4F701C081D181530164017E
:100AF000F2E0EF0EF11C83E00A38180709F78A2D9F
:100B00009B2DAC2DBD2D8093480290934902A0935C
:100B10004A02B0934B02D0934702C093460283E04F
:100B200095E00E94C100609342027093430280935B
:100B300044029093450284E095E00E942302609372
:100B40003E0270933F02809340029093410260E026
:100B500070E080E090E0C0E0D0E0FE01EE0FFF1F0B
:100B6000EE0FFF1FE25AFD4F2081318142815381F8
:100B70000E9431112196CC33D10579F7472F382FB8
:100B8000292F862F942FA32FB22F80933A02909370
:100B90003B02A0933C02B0933D0284E095E00E94AA
:100BA0003802609332027093330280933402909340
:100BB00035020E947C0360930001709301018093D1
:100BC0000201909303010E94B703609304017093A4
:100BD00005018093060190930701DF91CF911F914A
:100BE0000F91FF90EF90DF90CF90BF90AF909F90CC
:100BF0008F907F906F9008950E94C90482E195E0E4
:100C00000E94BE0C69E071E082E195E00E94B50CA3
:100C100060915C0270915D024AE050E082E195E0F3
:100C20000E948F0D64E171E082E195E00E94B50CB5
:100C3000409158025091590260915A0270915B02A2
:100C400021E030E082E195E00E94400E63E271E035
:100C500082E195E00E94B50C4091540250915502FA
:100C6000609156027091570221E030E082E195E0F8
:100C70000E94400E61E371E082E195E00E94B50CB4
:100C800060915202709153024AE050E082E195E097
:100C90000E948F0D6FE371E082E195E00E94B50C38
:100CA00040914E0250914F0260915002709151025A
:100CB00021E030E082E195E00E94400E62E571E0C3
:100CC00082E195E00E94B50C60914C0270914D025A
:100CD0004AE050E082E195E00E948F0D62E671E00B
:100CE00082E195E00E94B50C409148025091490282
:100CF00060914A0270914B0221E030E082E195E080
:100D00000E94400E64E771E082E195E00E94B50C1C
:100D100060914602709147024AE050E082E195E01E
:100D20000E948F0D66E871E082E195E00E94B50CAB
:100D300040914202509143026091440270914502F9
:100D400021E030E082E195E00E94400E61E971E02F
:100D500082E195E00E94B50C40913E0250913F0225
:100D6000609140027091410221E030E082E195E023
:100D70000E94400E69E971E082E195E00E94B50CA5
:100D800040913A0250913B0260913C0270913D02C9
:100D900022E030E082E195E00E94400E62EA71E0DC
:100DA00082E195E00E94B50C4091360250913702E5
:100DB000609138027091390222E030E082E195E0E2
:100DC0000E94400E60EB71E082E195E00E94B50C5C
:100DD0004091320250913302609134027091350299
:100DE00022E030E082E195E00E94400E6BEB71E082
:100DF00082E195E00E94B50C4091040150910501FB
:100E0000609106017091070122E030E082E195E0F7
:100E10000E94400E66EC71E082E195E00E94B50C04
:100E20004091000150910101609102017091030114
:100E300022E030E082E195E00E94400E62ED71E038
:100E400082E195E00E94B50C64ED71E082E195E0ED
:100E50000C94D40C40E855E260E070E082E195E04B
:100E60000E94A00B66ED71E082E195E00E94D40C37
:100E700061E087E00E941E0A61E088E00E941E0A8D
:100E800062E083E00E941E0A62E082E00E941E0A85
:100E900060E081E10E941E0A60E08FE00E941E0A6D
:100EA00084E095E00E94390184E095E00E94CD0243
:100EB00067E084E095E00E94B40284E095E00E943F
:100EC000B00283E095E00E9491001092FE040E941F
:100ED00057096093FF047093000580930105909378
:100EE000020542E050E064E073E080E00E94720896
:100EF00042E050E06BED72E081E00E94720878946D
:100F00006DEE71E082E195E00C94D40C9F92AF926B
:100F1000BF92CF92DF92EF92FF920F931F93CF93E6
:100F2000DF930E945709C090FF04D0900005E09025
:100F30000105F09002056C197D098E099F0968383A
:100F400073418105910508F4B4C061E087E00E9417
:100F5000560A8091FF0490910005A0910105B0917F
:100F6000020588579C4EAF4FBF4F8093FF0490936C
:100F70000005A0930105B09302058091FD048F5FE9
:100F8000883718F48093FD0402C01092FD040E947B
:100F9000F8036B017C010E9452048C01C091FD0496
:100FA000D0E05AE7A52E54E0B52EAC0EBD1EC70109
:100FB000B6010E940112F5016083FE01EE0FFF1FD2
:100FC000E657FC4F118300839090FB04A92CB12CB1
:100FD000E501CC0FDD1FCC0FDD1FCE59DC4F288182
:100FE00039814A815B81C701B6010E94E41218165B
:100FF0005CF4C882D982EA82FB82F501EE0FFF1F02
:10100000E25BFC4F11830083209154023091550222
:101010004091560250915702C701B6010E94E41256
:10102000181664F4C0925402D0925502E09256020F
:10103000F092570210935302009352028091FE04E3
:101040008F5F8C3318F48093FE042DC01092FE0441
:101050008091FC048F5F8C3318F48093FC0402C0F1
:101060001092FC04892D8F5F8A3018F48093FB0462
:1010700002C01092FB04E091FC0424E0E29FF00126
:101080001124E25AFD4F1082118212821382E091E4
:10109000FB0484E0E89FF0011124EE59FC4F10821C
:1010A0001182128213820E94FC0560E087E00E9498
:1010B000560A64E670E080E090E0DF91CF911F91E6
:1010C0000F91FF90EF90DF90CF90BF90AF909F90E7
:1010D0000C94930984E095E00E94380183E095E048
:1010E0000C9490008230E8F4E82FF0E0EE0FFF1F40
:1010F000EB5FFA4F71836083813041F0809169002A
:101100008C7F842B80936900E89A08958091690010
:10111000440F551F440F551F837F842B8093690014
:10112000E99A08951F920F920FB60F9211242F93F0
:101130003F934F935F936F937F938F939F93AF935F
:10114000BF93EF93FF938091050590910605892B3E
:1011500029F0E0910505F09106050995FF91EF91C1
:10116000BF91AF919F918F917F916F915F914F91BF
:101170003F912F910F900FBE0F901F9018951F92C7
:101180000F920FB60F9211242F933F934F935F93BB
:101190006F937F938F939F93AF93BF93EF93FF933F
:1011A0008091070590910805892B29F0E0910705AA
:1011B000F09108050995FF91EF91BF91AF919F9133
:1011C0008F917F916F915F914F913F912F910F90F0
:1011D0000FBE0F901F9018958E3008F08E508770BC
:1011E0002091080140E4249F90011124822B8093D8
:1011F0007C0080917A00806480937A0080917A00EC
:1012000086FDFCCF2091780030917900932F80E00B
:10121000AC01422B9A01C90108951F920F920FB69B
:101220000F9211242F933F938F939F93AF93BF936C
:101230008091090590910A05A0910B05B0910C05CC
:1012400030911105232F2D5F2D3720F40196A11D1C
:10125000B11D05C0232F2A570296A11DB11D209351
:1012600011058093090590930A05A0930B05B0938F
:101270000C0580910D0590910E05A0910F05B09180
:1012800010050196A11DB11D80930D0590930E05CB
:10129000A0930F05B0931005BF91AF919F918F91CF
:1012A0003F912F910F900FBE0F901F9018950F93A5
:1012B0001F938FB7F8940091090510910A052091AA
:1012C0000B0530910C058FBFB801C9011F910F911B
:1012D00008950F931F939FB7F89400910D051091F7
:1012E0000E0520910F053091100586B5A89B06C00C
:1012F0008F3F21F00F5F1F4F2F4F3F4F9FBF322F68
:10130000212F102F0027080F111D211D311D42E034
:10131000000F111F221F331F4A95D1F7B801C901D1
:101320001F910F910895CF92DF92EF92FF92CF938A
:10133000DF936B017C010E946909EB010EC00E94E2
:1013400069096C1B7D0B683E734038F081E0C81A58
:10135000D108E108F108C851DC4FC114D104E104FF
:10136000F10469F7DF91CF91FF90EF90DF90CF907C
:101370000895789484B5826084BD84B5816084BD0D
:1013800085B5826085BD85B5816085BDEEE6F0E0FE
:10139000808181608083E1E8F0E01082808182605A
:1013A0008083808181608083E0E8F0E080818160DB
:1013B0008083E1EBF0E0808184608083E0EBF0E00B
:1013C000808181608083EAE7F0E0808184608083AF
:1013D0008081826080838081816080838081806859
:1013E00080831092C1000895833069F028F4813021
:1013F000A1F0823011F514C08630B1F08730C1F011
:101400008430D9F404C0809180008F7703C080912C
:1014100080008F7D80938000089584B58F7702C00F
:1014200084B58F7D84BD08958091B0008F7703C00F
:101430008091B0008F7D8093B0000895CF93DF93AB
:1014400090E0FC01E458FF4F4491FC01E057FF4F4E
:101450008491882341F190E0880F991FFC01E255A7
:10146000FF4F25913491D9018C559F4FFC018591F7
:101470009491C82FD92F9FB7F8948C91611106C011
:10148000409584238C938881842308C0623041F482
:10149000242F209582238C938881842B888302C0FB
:1014A000842B8C939FBFDF91CF9108950F931F934F
:1014B000CF93DF931F92CDB7DEB7282F30E0F9012D
:1014C000E859FF4F8491F901E458FF4F1491F90155
:1014D000E057FF4F04910023D1F0882321F0698366
:1014E0000E94F4096981E02FF0E0EE0FFF1FEC5538
:1014F000FF4F85919491DC019FB7F8948C91611115
:1015000003C01095812301C0812B8C939FBF0F9046
:10151000DF91CF911F910F910895FC0184859585EE
:10152000FC01E05CFF4F20813181FC01EE5BFF4F4D
:1015300080819181281B390B2F733327C9010895AE
:10154000FC0184859585FC01E05CFF4F4081518161
:10155000FC01EE5BFF4F208131814217530741F0C0
:101560000190F081E02DE80FF91F208130E002C0EA
:101570002FEF3FEFC9010895FC0184859585FC019B
:10158000E05CFF4F40815181FC01EE5BFF4F208109
:1015900031814217530781F0A081B181A80FB91F93
:1015A0008C91208131812F5F3F4F2F7333273183FF
:1015B0002083282F30E002C02FEF3FEFC9010895AC
:1015C000FC0186859785FC01E05CFF4FDC01AE5B8A
:1015D000BF4F408151812D913C9111974217530784
:1015E000C1F70895CF93DF93FC0186859785DC01D1
:1015F000A05CBF4F2D913C9111972F5F3F4F2F73F0
:101600003327EC01CE5BDF4F488159812417350722
:10161000D9F30D90BC91A02DA80FB91F6C93A6858E
:10162000B785A05CBF4F11963C932E93A689B789CE
:101630002C9181E090E0058C02C0880F991F0A94DC
:10164000E2F7282B2C9381E090E0DF91CF91089571
:1016500008951F920F920FB60F9211242F933F936C
:101660004F938F939F93EF93FF934091C600809188
:10167000B5059091B60501968F7399272091B7050E
:101680003091B8058217930759F0E091B505F091B4
:10169000B605EB58FA4F40839093B6058093B50595
:1016A000FF91EF919F918F914F913F912F910F90CB
:1016B0000FBE0F901F90189582E195E00E948D0A51
:1016C000892B11F00C94280B08951F920F920FB6DE
:1016D0000F9211242F933F938F939F93EF93FF9338
:1016E0002091710530917205809173059091740578
:1016F0002817390731F48091C1008F7D8093C10094
:1017000014C0E0917305F0917405EF5CFA4F2081ED
:10171000809173059091740501968F73992790932A
:101720007405809373052093C600FF91EF919F91FC
:101730008F913F912F910F900FBE0F901F90189592
:10174000CF92DF92EF92FF92CF93DF93EC016A0189
:101750007B01411581EE580761057105F9F0EC89AF
:10176000FD8981E090E00E8C02C0880F991F0A94D9
:10177000E2F7808360E079E08DE390E0A7019601D5
:101780000E944B1321503109410951095695479543
:1017900037952795211580E1380798F0EC89FD8968
:1017A000108260E874E88EE190E0A70196010E9443
:1017B0004B132150310941095109569547953795E9
:1017C0002795E889F9893083EA89FB892083EE89A6
:1017D000FF89408181E090E09C010A8C02C0220FC9
:1017E000331F0A94E2F7422B4083EE89FF89408140
:1017F0009C010B8C02C0220F331F0A94E2F7422B8C
:101800004083EE89FF8940819C010C8C02C0220F2D
:10181000331F0A94E2F7422B4083EE89FF8920812F
:101820000D8C02C0880F991F0A94E2F780958223DD
:101830008083DF91CF91FF90EF90DF90CF9008955C
:10184000109215051092140588EE93E0A0E0B0E028
:101850008093160590931705A0931805B09319056A
:1018600088E092E0909313058093120585E795E058
:1018700090931F0580931E0581E395E090932105C9
:101880008093200585EC90E09093230580932205BA
:1018900084EC90E0909325058093240580EC90E003
:1018A000909327058093260581EC90E0909329057D
:1018B0008093280586EC90E090932B0580932A0571
:1018C00084E080932C0583E080932D0587E080934E
:1018D0002E0585E080932F0581E0809330050895E3
:1018E0000E94B9090E942A07CCE5DBE00E94860726
:1018F0002097E1F30E945C0BF9CFCF92DF92EF9239
:10190000FF920F931F93CF93DF936C01EB017A014A
:10191000E60EF71E00E010E00BC06991D601ED91D4
:10192000FC910190F081E02DC6010995080F191F67
:10193000CE15DF0591F7C801DF91CF911F910F916F
:10194000FF90EF90DF90CF900895DB010D90002085
:10195000E9F7AD0141505109461B570BDC01ED91F0
:10196000FC910280F381E02D09940C94A50CDC011C
:10197000ED91FC910190F081E02D09940F931F935C
:10198000CF93DF93EC016DE00E94B70C8C016AE00D
:10199000CE010E94B70C9C01200F311FC901DF91BD
:1019A000CF911F910F9108950F931F93CF93DF93C2
:1019B000EC010E94A50C8C01CE010E94BE0C980186
:1019C000280F391FC901DF91CF911F910F91089501
:1019D0004F925F926F927F929F92AF92BF92CF92FF
:1019E000DF92EF92FF920F931F93CF93DF93CDB7C8
:1019F000DEB7A1970FB6F894DEBF0FBECDBF5C0176
:101A00006A017B01922E19A281E0821710F08AE010
:101A1000982E8E010F5D1F4F492C512C612C712C7B
:101A2000C701B601A30192010E944B138C2D929E17
:101A300080191124015011098A3014F4805D01C00D
:101A4000895CF801808369017A01C114D104E10441
:101A5000F10431F7B801C5010E94A50CA1960FB69B
:101A6000F894DEBF0FBECDBFDF91CF911F910F91D4
:101A7000FF90EF90DF90CF90BF90AF909F907F90BE
:101A80006F905F904F900895CF92DF92EF92FF9208
:101A90000F931F93CF93DF93EC016A017B01211514
:101AA000310579F4E881F9810190F081E02D642F0E
:101AB000DF91CF911F910F91FF90EF90DF90CF902A
:101AC00009942A30310519F477FD0EC02AE0B701D8
:101AD000A601CE01DF91CF911F910F91FF90EF9062
:101AE000DF90CF900C94E80C6DE20E94B70C8C0153
:101AF00044275527BA014C195D096E097F092AE070
:101B0000CE010E94E80C080F191FC801DF91CF9188
:101B10001F910F91FF90EF90DF90CF9008959A0161
:101B2000AB01662757FD6095762F0C94440D7F928C
:101B30008F929F92AF92BF92CF92DF92EF92FF92DD
:101B40000F931F93CF93DF938C014A015B01F22E19
:101B500020E030E0A901C501B4010E94951187FF82
:101B60000AC06DE2C8010E94B70CEC01B7FAB0944C
:101B7000B7F8B09402C0C0E0D0E0E12C60E070E0C3
:101B800080E09FE307C020E030E040E251E40E94A3
:101B90009911E394EF10F7CF262F372F482F592FA5
:101BA000C501B4010E943111762E872E982EA92EE0
:101BB0000E940612B62EC72ED82EE92E0E9432128F
:101BC0009B01AC01672D782D892D9A2D0E94301133
:101BD000A62E972E882E792E2AE04B2D5C2D6D2D6A
:101BE0007E2DC8010E94E80CC80FD91FFF20B9F153
:101BF00064E172E0C8010E94A50CC80FD91F2FC074
:101C000020E030E040E251E46A2D792D882D972DB7
:101C10000E94E812762EC72ED82EE92E0E940112BD
:101C20004B01AA2497FCA094BA2C2AE030E0B5011D
:101C3000A401C8010E94440DC80FD91FC501B401F9
:101C40000E9434129B01AC01672D7C2D8D2D9E2DA1
:101C50000E943011A62E972E882E792EFA94F1101C
:101C6000CFCFCE01DF91CF911F910F91FF90EF90D9
:101C7000DF90CF90BF90AF909F908F907F9008950E
:101C80000C94970D2091E90530E08091EA05281B1E
:101C90003109C90108958091EA059091E9058917F4
:101CA00050F4E82FF0E0E551FA4F208130E08F5FEB
:101CB0008093EA0502C02FEF3FEFC9010895E0913C
:101CC000EA058091E905E81730F4F0E0E551FA4FB4
:101CD000208130E002C02FEF3FEFC9010895089541
:101CE000CF92DF92EF92FF920F931F93CF93DF93E8
:101CF0007C01CB018A012091C505222391F0EB01E3
:101D00006B01C40ED51E09C06991D701ED91FC91FC
:101D10000190F081E02DC7010995CC15DD05A1F7F3
:101D200003C0642F0E94D40FC801DF91CF911F918F
:101D30000F91FF90EF90DF90CF900895CF93DF93B6
:101D40001F92CDB7DEB769832091C5052223D1F05C
:101D50002091C605203240F021E030E0FC013383C1
:101D6000228320E030E015C08091C705E82FF0E025
:101D7000E853FA4F998190838F5F8093C7058093D2
:101D8000C60505C061E0CE0101960E94D40F21E096
:101D900030E0C9010F90DF91CF910895FC011382CB
:101DA000128248EE53E060E070E04483558366831E
:101DB00077838AE192E09183808308951092EA0507
:101DC0001092E9051092C7051092C6050C941E0FDB
:101DD000862F413208F040E26BEE75E00E943C0F26
:101DE0001092EA058093E905089521E00C94E80E2D
:101DF00081E08093C5056093E8051092C7051092B5
:101E0000C60508950C94F80E0F93062F21E040911B
:101E1000C60568EC75E08091E8050E94810F10927C
:101E2000C7051092C6051092C5050F91089561E08F
:101E30000C94040F89EB95E00C94CE0E10921406CE
:101E400081E0809312061092110661E082E10E9407
:101E5000560A61E083E10E94560AE9EBF0E08081D6
:101E60008E7F808380818D7F808388E48093B8001B
:101E700085E48093BC000895413208F03FC0909102
:101E800014069111FCCF91E0909314062093120652
:101E90002FEF20930B0610921006242F2150209331
:101EA0000F069093130690911306880F892B809349
:101EB000130680911106813041F410921106809131
:101EC00013068093BB0085EC01C085EE8093BC00B7
:101ED000809114068130E1F380911006841710F48C
:101EE0004091100625E136E0FB01D90102C08D9139
:101EF00081938A2F821B8417D0F301C040E0842F86
:101F000008950F93413208F046C090911406911144
:101F1000FCCF92E090931406009312069FEF9093EB
:101F20000B061092100640930F06FB0165E176E068
:101F3000DB0102C091919D939A2F961B9417D0F3C9
:101F40001092130690911306880F892B8093130625
:101F500080911106813041F4109211068091130690
:101F60008093BB0085EC01C085EE8093BC002223EA
:101F700021F0809114068230E1F380910B068F3FAF
:101F800061F080910B06803251F080910B06803316
:101F900041F483E007C081E005C080E003C082E037
:101FA00001C084E00F910895613298F420911406E5
:101FB000243089F460930D06FC0185E396E0DC0192
:101FC00002C021912D932A2F281B2617D0F380E0E1
:101FD000089581E0089582E0089585ED8093BC0026
:101FE0008091BC0084FDFCCF10921406089585EC0E
:101FF0008093BC001092140608951F920F920FB6A2
:102000000F9211242F933F934F935F936F937F937E
:102010008F939F93AF93BF93EF93FF938091B900FA
:10202000887F803609F49FC058F5883209F45BC078
:1020300090F4803109F452C038F4882309F4F8C0D0
:10204000883009F0F9C04AC0883109F44CC08032A8
:1020500009F0F2C05CC0803409F46BC038F48033FE
:1020600009F455C0883309F0E7C054C0803509F43D
:1020700054C0883509F462C0883409F0DDC0DAC084
:10208000883909F4CBC0A8F4883709F46CC038F457
:10209000883609F468C0803709F0CEC064C088383B
:1020A00009F4BCC0803909F464C0803809F0C4C0A8
:1020B00060C0803B09F48AC038F4803A09F46BC0F0
:1020C000883A09F0B9C082C0803C09F4ABC0883CB2
:1020D00009F4A8C0883B09F0AFC08DC080911306F9
:1020E0008093BB0012C09091100680910F06981744
:1020F00088F580911006E82FF0E0EB5EF94F9081B3
:102100009093BB008F5F8093100685EC88C080930E
:102110000B0690C080930B0656C0809110069091DC
:10212000BB00E82FF0E0EB5EF94F90838F5F809368
:1021300010069091100680910F066DC080911006D8
:102140009091BB00E82FF0E0EB5EF94F90838F5F3A
:10215000809310068091120681116CC081E08093FB
:10216000110684EA60C083E08093140610920C0686
:10217000CCCF80910C06803208F050C080910C06C4
:102180009091BB00E82FF0E0E75AF94F90838F5F02
:1021900080930C06BACF80910C06803230F4E09127
:1021A0000C06F0E0E75AF94F10820E94ED0F6091A3
:1021B0000C06E0915506F091560670E089E596E030
:1021C000099510920C060E94F70F36C084E08093A8
:1021D000140610920E0610920D06E0915706F0912B
:1021E0005806099580910D06811105C081E0809304
:1021F0000D061092350680910E06E82FF0E0EB5C9C
:10220000F94F90819093BB008F5F80930E06909161
:102210000E0680910D06981708F477CF85E8809315
:10222000BC000AC085EC8093BC001092140604C068
:1022300010920B060E94ED0FFF91EF91BF91AF91AD
:102240009F918F917F916F915F914F913F912F91CE
:102250000F900FBE0F901F901895F8940C94731365
:102260005058BB27AA270ED075C166D130F06BD16C
:1022700020F031F49F3F11F41EF45BC10EF4E095A1
:10228000E7FB51C1E92F77D180F3BA1762077307D3
:102290008407950718F071F49EF58FC10EF4E09550
:1022A0000B2EBA2FA02D0B01B90190010C01CA0110
:1022B000A0011124FF27591B99F0593F50F4503EBB
:1022C00068F11A16F040A22F232F342F4427585FAD
:1022D000F3CF469537952795A795F0405395C9F7C5
:1022E0007EF41F16BA0B620B730B840BBAF091507D
:1022F000A1F0FF0FBB1F661F771F881FC2F70EC01C
:10230000BA0F621F731F841F48F4879577956795EE
:10231000B795F7959E3F08F0B3CF9395880F08F0D7
:102320009927EE0F979587950895D9D008F481E005
:1023300008950CD00FC107D140F0FED030F021F449
:102340005F3F19F0F0C0511139C1F3C014D198F3B7
:102350009923C9F35523B1F3951B550BBB27AA2726
:1023600062177307840738F09F5F5F4F220F331F98
:10237000441FAA1FA9F333D00E2E3AF0E0E830D064
:1023800091505040E695001CCAF729D0FE2F27D067
:10239000660F771F881FBB1F261737074807AB0735
:1023A000B0E809F0BB0B802DBF01FF2793585F4FAA
:1023B0002AF09E3F510568F0B6C000C15F3FECF3C4
:1023C000983EDCF3869577956795B795F7959F5F6F
:1023D000C9F7880F911D9695879597F90895E1E0C3
:1023E000660F771F881FBB1F621773078407BA0722
:1023F00020F0621B730B840BBA0BEE1F88F7E0957D
:10240000089504D06894B111D9C00895BCD088F063
:102410009F5790F0B92F9927B751A0F0D1F0660FD0
:10242000771F881F991F1AF0BA95C9F712C0B130EB
:1024300081F0C3D0B1E00895C0C0672F782F8827FE
:10244000B85F39F0B93FCCF3869577956795B3952A
:10245000D9F73EF490958095709561957F4F8F4F99
:102460009F4F0895E89409C097FB3EF4909580959E
:10247000709561957F4F8F4F9F4F9923A9F0F92F4A
:1024800096E9BB279395F695879577956795B795C8
:10249000F111F8CFFAF4BB0F11F460FF1BC06F5FAE
:1024A0007F4F8F4F9F4F16C0882311F096E911C0C0
:1024B000772321F09EE8872F762F05C0662371F0E1
:1024C00096E8862F70E060E02AF09A95660F771FF5
:1024D000881FDAF7880F9695879597F90895990FD1
:1024E0000008550FAA0BE0E8FEEF16161706E807DE
:1024F000F907C0F012161306E407F50798F0621BFF
:10250000730B840B950B39F40A2661F0232B242BD3
:10251000252B21F408950A2609F4A140A6958FEFF2
:10252000811D811D089597F99F6780E870E060E044
:1025300008959FEF80EC089500240A94161617065C
:1025400018060906089500240A94121613061406A4
:1025500005060895092E0394000C11F4882352F007
:10256000BB0F40F4BF2B11F460FF04C06F5F7F4FBF
:102570008F4F9F4F089557FD9058440F551F59F0A6
:102580005F3F71F04795880F97FB991F61F09F3F60
:1025900079F087950895121613061406551FF2CF89
:1025A0004695F1DF08C0161617061806991FF1CFD9
:1025B00086957105610508940895E894BB27662700
:1025C0007727CB0197F908958ADF08F48FEF0895F4
:1025D0000BD0C0CFB1DF28F0B6DF18F0952309F09B
:1025E000A2CFA7CF1124EACFC6DFA0F3959FD1F3E6
:1025F000950F50E0551F629FF001729FBB27F00DB1
:10260000B11D639FAA27F00DB11DAA1F649F662705
:10261000B00DA11D661F829F2227B00DA11D621F54
:10262000739FB00DA11D621F839FA00D611D221F0E
:10263000749F3327A00D611D231F849F600D211DF2
:10264000822F762F6A2F11249F5750408AF0E1F095
:1026500088234AF0EE0FFF1FBB1F661F771F881FDE
:1026600091505040A9F79E3F510570F05CCFA6CF26
:102670005F3FECF3983EDCF3869577956795B795C9
:10268000F795E7959F5FC1F7FE2B880F911D9695F3
:10269000879597F90895A1E21A2EAA1BBB1BFD018D
:1026A0000DC0AA1FBB1FEE1FFF1FA217B307E40731
:1026B000F50720F0A21BB30BE40BF50B661F771F89
:1026C000881F991F1A9469F7609570958095909569
:1026D0009B01AC01BD01CF010895EE0FFF1F0590D6
:0A26E000F491E02D0994F894FFCF67
:1026EA000080E343CDCC3C4101242C77696E6464BD
:1026FA0069723D002C77696E6473706565646D70EC
:10270A00683D002C77696E64677573746D70683DF7
:10271A00002C77696E64677573746469723D002C66
:10272A0077696E647370646D70685F617667326D25
:10273A003D002C77696E646469725F617667326DF9
:10274A003D002C77696E64677573746D70685F31CC
:10275A00306D3D002C77696E6467757374646972B5
:10276A005F31306D3D002C68756D69646974793D1F
:10277A00002C74656D70663D002C7261696E696E1D
:10278A003D002C6461696C797261696E696E3D0005
:10279A002C70726573737572653D002C6261747476
:1027AA005F6C766C3D002C6C696768745F6C766C44
:1027BA003D002C00230057656174686572205368D8
:1027CA0069656C64204578616D706C650057656158
:1027DA007468657220536869656C64206F6E6C69F1
:1027EA006E65210000000000F20A7D0C8D0ABC0A09
:1027FA00A00AE00A2E00000000009E0E700E420E93
:06280A004B0E5F0E6F0E85
:00000001FF
